{
  "contractName": "Marketplace",
  "abi": [
    {
      "constant": true,
      "inputs": [],
      "name": "name",
      "outputs": [
        {
          "name": "",
          "type": "string"
        }
      ],
      "payable": false,
      "stateMutability": "view",
      "type": "function"
    },
    {
      "constant": true,
      "inputs": [],
      "name": "orderCount",
      "outputs": [
        {
          "name": "",
          "type": "uint256"
        }
      ],
      "payable": false,
      "stateMutability": "view",
      "type": "function"
    },
    {
      "constant": true,
      "inputs": [
        {
          "name": "",
          "type": "uint256"
        }
      ],
      "name": "orders",
      "outputs": [
        {
          "name": "hashCode",
          "type": "string"
        },
        {
          "name": "value",
          "type": "uint256"
        },
        {
          "name": "isWithdraw",
          "type": "bool"
        }
      ],
      "payable": false,
      "stateMutability": "view",
      "type": "function"
    },
    {
      "inputs": [],
      "payable": false,
      "stateMutability": "nonpayable",
      "type": "constructor"
    },
    {
      "anonymous": false,
      "inputs": [
        {
          "indexed": false,
          "name": "hashCode",
          "type": "string"
        },
        {
          "indexed": false,
          "name": "value",
          "type": "uint256"
        },
        {
          "indexed": false,
          "name": "isWithdraw",
          "type": "bool"
        }
      ],
      "name": "OrderProduct",
      "type": "event"
    },
    {
      "anonymous": false,
      "inputs": [
        {
          "indexed": false,
          "name": "hashCode",
          "type": "string"
        },
        {
          "indexed": false,
          "name": "value",
          "type": "uint256"
        },
        {
          "indexed": false,
          "name": "isWithdraw",
          "type": "bool"
        }
      ],
      "name": "GetPayment",
      "type": "event"
    },
    {
      "constant": false,
      "inputs": [
        {
          "name": "_hashCode",
          "type": "string"
        }
      ],
      "name": "orderProduct",
      "outputs": [],
      "payable": true,
      "stateMutability": "payable",
      "type": "function"
    },
    {
      "constant": false,
      "inputs": [
        {
          "name": "_hashCode",
          "type": "string"
        }
      ],
      "name": "getPayment",
      "outputs": [],
      "payable": true,
      "stateMutability": "payable",
      "type": "function"
    }
  ],
  "bytecode": "0x6080604052600060015534801561001557600080fd5b506040805190810160405280601b81526020017f4461707020556e6976657273697479204d61726b6574706c616365000000000081525060009080519060200190610061929190610067565b5061010c565b828054600181600116156101000203166002900490600052602060002090601f016020900481019282601f106100a857805160ff19168380011785556100d6565b828001600101855582156100d6579182015b828111156100d55782518255916020019190600101906100ba565b5b5090506100e391906100e7565b5090565b61010991905b808211156101055760008160009055506001016100ed565b5090565b90565b610a728061011b6000396000f3fe60806040526004361061006d576000357c0100000000000000000000000000000000000000000000000000000000900463ffffffff16806306fdde03146100725780632453ffa814610102578063a85c38ef1461012d578063c69207a3146101f3578063ff8c6463146102ae575b600080fd5b34801561007e57600080fd5b50610087610369565b6040518080602001828103825283818151815260200191508051906020019080838360005b838110156100c75780820151818401526020810190506100ac565b50505050905090810190601f1680156100f45780820380516001836020036101000a031916815260200191505b509250505060405180910390f35b34801561010e57600080fd5b50610117610407565b6040518082815260200191505060405180910390f35b34801561013957600080fd5b506101666004803603602081101561015057600080fd5b810190808035906020019092919050505061040d565b604051808060200184815260200183151515158152602001828103825285818151815260200191508051906020019080838360005b838110156101b657808201518184015260208101905061019b565b50505050905090810190601f1680156101e35780820380516001836020036101000a031916815260200191505b5094505050505060405180910390f35b6102ac6004803603602081101561020957600080fd5b810190808035906020019064010000000081111561022657600080fd5b82018360208201111561023857600080fd5b8035906020019184600183028401116401000000008311171561025a57600080fd5b91908080601f016020809104026020016040519081016040528093929190818152602001838380828437600081840152601f19601f8201169050808301925050505050505091929192905050506104dc565b005b610367600480360360208110156102c457600080fd5b81019080803590602001906401000000008111156102e157600080fd5b8201836020820111156102f357600080fd5b8035906020019184600183028401116401000000008311171561031557600080fd5b91908080601f016020809104026020016040519081016040528093929190818152602001838380828437600081840152601f19601f82011690508083019250505050505050919291929050505061082a565b005b60008054600181600116156101000203166002900480601f0160208091040260200160405190810160405280929190818152602001828054600181600116156101000203166002900480156103ff5780601f106103d4576101008083540402835291602001916103ff565b820191906000526020600020905b8154815290600101906020018083116103e257829003601f168201915b505050505081565b60015481565b6002602052806000526040600020600091509050806000018054600181600116156101000203166002900480601f0160208091040260200160405190810160405280929190818152602001828054600181600116156101000203166002900480156104b95780601f1061048e576101008083540402835291602001916104b9565b820191906000526020600020905b81548152906001019060200180831161049c57829003601f168201915b5050505050908060010154908060020160009054906101000a900460ff16905083565b6104e461097d565b60008060009050600080905060008090505b60015481101561068f57818060010192505085805190602001206002600083815260200190815260200160002060000160405180828054600181600116156101000203166002900480156105815780601f1061055f576101008083540402835291820191610581565b820191906000526020600020905b81548152906001019060200180831161056d575b50509150506040518091039020141561068457600192506002600082815260200190815260200160002060606040519081016040529081600082018054600181600116156101000203166002900480601f0160208091040260200160405190810160405280929190818152602001828054600181600116156101000203166002900480156106505780601f1061062557610100808354040283529160200191610650565b820191906000526020600020905b81548152906001019060200180831161063357829003601f168201915b50505050508152602001600182015481526020016002820160009054906101000a900460ff16151515158152505094508093505b8060010190506104f6565b5081151561069c57600080fd5b83604001511515156106ad57600080fd5b3373ffffffffffffffffffffffffffffffffffffffff166108fc85602001519081150290604051600060405180830381858888f193505050501580156106f7573d6000803e3d6000fd5b506001846040019015159081151581525050836002600085815260200190815260200160002060008201518160000190805190602001906107399291906109a1565b506020820151816001015560408201518160020160006101000a81548160ff0219169083151502179055509050507f50fa2d4ad9b7f11172f99e086fca12ac4aa08cf49ea617d6b2fa39c515cff0ba846000015185602001518660400151604051808060200184815260200183151515158152602001828103825285818151815260200191508051906020019080838360005b838110156107e75780820151818401526020810190506107cc565b50505050905090810190601f1680156108145780820380516001836020036101000a031916815260200191505b5094505050505060405180910390a15050505050565b61083261097d565b60606040519081016040528083815260200134815260200160001515815250905080600260006001600081548092919060010191905055815260200190815260200160002060008201518160000190805190602001906108939291906109a1565b506020820151816001015560408201518160020160006101000a81548160ff0219169083151502179055509050507fa1c360b64acfb0f392cbcc1ecb68df289f73cbd78627f2b7cb457f43555ab6c28160000151348360400151604051808060200184815260200183151515158152602001828103825285818151815260200191508051906020019080838360005b8381101561093d578082015181840152602081019050610922565b50505050905090810190601f16801561096a5780820380516001836020036101000a031916815260200191505b5094505050505060405180910390a15050565b60606040519081016040528060608152602001600081526020016000151581525090565b828054600181600116156101000203166002900490600052602060002090601f016020900481019282601f106109e257805160ff1916838001178555610a10565b82800160010185558215610a10579182015b82811115610a0f5782518255916020019190600101906109f4565b5b509050610a1d9190610a21565b5090565b610a4391905b80821115610a3f576000816000905550600101610a27565b5090565b9056fea165627a7a723058205cb1baa67f7b9871ec9ddb4b0ad368d32eb1a5da2f36de145c865cce17b907a50029",
  "source": "pragma solidity ^0.5.0;\r\n\r\ncontract Marketplace {\r\n    string public name;\r\n    uint256 public orderCount = 0;\r\n    mapping(uint256 => Order) public orders;\r\n\r\n    struct Order {\r\n        string hashCode;\r\n        uint256 value;\r\n        bool isWithdraw;\r\n    }\r\n\r\n    event OrderProduct(\r\n        string hashCode,\r\n        uint value,\r\n        bool isWithdraw\r\n    );\r\n\r\n    event GetPayment(\r\n        string hashCode,\r\n        uint value,\r\n        bool isWithdraw\r\n    );\r\n\r\n\r\n    constructor() public {\r\n        name = \"Dapp University Marketplace\";\r\n    }\r\n\r\n    function orderProduct(string memory _hashCode) public payable\r\n    {\r\n        Order memory crtOrder = Order(_hashCode, msg.value, false);\r\n        orders[orderCount++] = crtOrder;\r\n\r\n        // trigger an event\r\n        emit OrderProduct(\r\n            crtOrder.hashCode,\r\n            msg.value,\r\n            crtOrder.isWithdraw            \r\n        );\r\n    }\r\n\r\n    function getPayment(string memory _hashCode) public payable {\r\n        Order memory selectedOrder;\r\n        uint256 orderIdx;\r\n        bool isExistedOrder = false;\r\n        uint256 count = 0;\r\n\r\n        for (uint256 i = 0; i < orderCount; ++i) {\r\n            count++;\r\n            if (keccak256(bytes(orders[i].hashCode)) == keccak256(bytes(_hashCode))) {\r\n                isExistedOrder = true;\r\n                selectedOrder = orders[i];\r\n                orderIdx = i;\r\n            }\r\n        }\r\n\r\n        // Require that the order exist\r\n        require(isExistedOrder);\r\n        // Require that the order exist\r\n        require(!selectedOrder.isWithdraw);\r\n        // pay the seller by sending them Ether\r\n        address(msg.sender).transfer(selectedOrder.value);\r\n        selectedOrder.isWithdraw = true;\r\n        orders[orderIdx] = selectedOrder;\r\n        emit GetPayment(\r\n            selectedOrder.hashCode,\r\n            selectedOrder.value,\r\n            selectedOrder.isWithdraw\r\n        );\r\n    }\r\n}\r\n",
  "sourcePath": "C:/Ha Hung/4-blockchain/marketplace/src/contracts/Marketplace.sol",
  "compiler": {
    "name": "solc",
    "version": "0.5.0+commit.1d4f565a.Emscripten.clang"
  },
  "schemaVersion": "3.0.2",
  "updatedAt": "2020-12-08T21:19:18.325Z",
  "devdoc": {
    "methods": {}
  },
  "userdoc": {
    "methods": {}
  }
}